{
  "_format": "hh-sol-artifact-1",
  "contractName": "StakeCore",
  "sourceName": "src/contracts/StakeCore.sol",
  "abi": [
    {
      "inputs": [
        {
          "internalType": "contract IERC20",
          "name": "_token",
          "type": "address"
        },
        {
          "internalType": "uint256",
          "name": "lockDays",
          "type": "uint256"
        },
        {
          "internalType": "uint256",
          "name": "stakerShares",
          "type": "uint256"
        },
        {
          "internalType": "uint256",
          "name": "installmentCount",
          "type": "uint256"
        }
      ],
      "stateMutability": "nonpayable",
      "type": "constructor"
    },
    {
      "inputs": [
        {
          "internalType": "address",
          "name": "target",
          "type": "address"
        }
      ],
      "name": "AddressEmptyCode",
      "type": "error"
    },
    {
      "inputs": [
        {
          "internalType": "address",
          "name": "account",
          "type": "address"
        }
      ],
      "name": "AddressInsufficientBalance",
      "type": "error"
    },
    {
      "inputs": [],
      "name": "FailedInnerCall",
      "type": "error"
    },
    {
      "inputs": [
        {
          "internalType": "address",
          "name": "token",
          "type": "address"
        }
      ],
      "name": "SafeERC20FailedOperation",
      "type": "error"
    },
    {
      "anonymous": false,
      "inputs": [
        {
          "indexed": true,
          "internalType": "address",
          "name": "beneficiary",
          "type": "address"
        }
      ],
      "name": "BeneficiaryInitialized",
      "type": "event"
    },
    {
      "anonymous": false,
      "inputs": [
        {
          "indexed": true,
          "internalType": "address",
          "name": "beneficiary",
          "type": "address"
        },
        {
          "indexed": false,
          "internalType": "uint256",
          "name": "amount",
          "type": "uint256"
        }
      ],
      "name": "BeneficiaryRewardsClaimed",
      "type": "event"
    },
    {
      "anonymous": false,
      "inputs": [
        {
          "indexed": true,
          "internalType": "address",
          "name": "staker",
          "type": "address"
        },
        {
          "indexed": false,
          "internalType": "uint256",
          "name": "amount",
          "type": "uint256"
        },
        {
          "indexed": false,
          "internalType": "uint256",
          "name": "index",
          "type": "uint256"
        }
      ],
      "name": "RewardsClaimed",
      "type": "event"
    },
    {
      "anonymous": false,
      "inputs": [
        {
          "indexed": false,
          "internalType": "uint256",
          "name": "amount",
          "type": "uint256"
        },
        {
          "indexed": false,
          "internalType": "uint256",
          "name": "totalSecurity",
          "type": "uint256"
        }
      ],
      "name": "SecurityDeposited",
      "type": "event"
    },
    {
      "anonymous": false,
      "inputs": [
        {
          "indexed": false,
          "internalType": "uint256",
          "name": "amount",
          "type": "uint256"
        },
        {
          "indexed": false,
          "internalType": "uint256",
          "name": "remainingSecurity",
          "type": "uint256"
        }
      ],
      "name": "SecurityWithdrawn",
      "type": "event"
    },
    {
      "anonymous": false,
      "inputs": [
        {
          "indexed": true,
          "internalType": "address",
          "name": "staker",
          "type": "address"
        },
        {
          "indexed": false,
          "internalType": "uint256",
          "name": "amount",
          "type": "uint256"
        },
        {
          "indexed": false,
          "internalType": "uint256",
          "name": "startTime",
          "type": "uint256"
        },
        {
          "indexed": false,
          "internalType": "uint256",
          "name": "lockPeriod",
          "type": "uint256"
        }
      ],
      "name": "Stake",
      "type": "event"
    },
    {
      "anonymous": false,
      "inputs": [
        {
          "indexed": true,
          "internalType": "address",
          "name": "staker",
          "type": "address"
        },
        {
          "indexed": false,
          "internalType": "uint256",
          "name": "amount",
          "type": "uint256"
        },
        {
          "indexed": false,
          "internalType": "uint256",
          "name": "index",
          "type": "uint256"
        }
      ],
      "name": "Unstake",
      "type": "event"
    },
    {
      "inputs": [],
      "name": "PRECISION",
      "outputs": [
        {
          "internalType": "uint256",
          "name": "",
          "type": "uint256"
        }
      ],
      "stateMutability": "view",
      "type": "function"
    },
    {
      "inputs": [],
      "name": "admin",
      "outputs": [
        {
          "internalType": "address",
          "name": "",
          "type": "address"
        }
      ],
      "stateMutability": "view",
      "type": "function"
    },
    {
      "inputs": [],
      "name": "apy",
      "outputs": [
        {
          "internalType": "uint256",
          "name": "",
          "type": "uint256"
        }
      ],
      "stateMutability": "view",
      "type": "function"
    },
    {
      "inputs": [],
      "name": "beneficiary",
      "outputs": [
        {
          "internalType": "address",
          "name": "owner",
          "type": "address"
        },
        {
          "internalType": "uint256",
          "name": "totalRewards",
          "type": "uint256"
        },
        {
          "internalType": "uint256",
          "name": "claimedRewards",
          "type": "uint256"
        }
      ],
      "stateMutability": "view",
      "type": "function"
    },
    {
      "inputs": [
        {
          "internalType": "uint256",
          "name": "_collataralAmount",
          "type": "uint256"
        }
      ],
      "name": "calculateBeneficiaryRewards",
      "outputs": [
        {
          "internalType": "uint256",
          "name": "",
          "type": "uint256"
        }
      ],
      "stateMutability": "view",
      "type": "function"
    },
    {
      "inputs": [
        {
          "internalType": "uint256",
          "name": "_collataralAmount",
          "type": "uint256"
        }
      ],
      "name": "calculateStakerRewards",
      "outputs": [
        {
          "internalType": "uint256",
          "name": "",
          "type": "uint256"
        }
      ],
      "stateMutability": "view",
      "type": "function"
    },
    {
      "inputs": [],
      "name": "claimBeneficiaryRewards",
      "outputs": [
        {
          "internalType": "uint256",
          "name": "",
          "type": "uint256"
        }
      ],
      "stateMutability": "nonpayable",
      "type": "function"
    },
    {
      "inputs": [
        {
          "internalType": "uint256",
          "name": "_index",
          "type": "uint256"
        }
      ],
      "name": "claimRewards",
      "outputs": [],
      "stateMutability": "nonpayable",
      "type": "function"
    },
    {
      "inputs": [
        {
          "internalType": "uint256",
          "name": "_amount",
          "type": "uint256"
        }
      ],
      "name": "depositSecurity",
      "outputs": [],
      "stateMutability": "nonpayable",
      "type": "function"
    },
    {
      "inputs": [
        {
          "internalType": "uint256",
          "name": "_amount",
          "type": "uint256"
        }
      ],
      "name": "getCollateralBySecurityDeposit",
      "outputs": [
        {
          "internalType": "uint256",
          "name": "",
          "type": "uint256"
        }
      ],
      "stateMutability": "view",
      "type": "function"
    },
    {
      "inputs": [
        {
          "internalType": "uint256",
          "name": "_amount",
          "type": "uint256"
        }
      ],
      "name": "getSecurityDepositByCollateral",
      "outputs": [
        {
          "internalType": "uint256",
          "name": "",
          "type": "uint256"
        }
      ],
      "stateMutability": "view",
      "type": "function"
    },
    {
      "inputs": [
        {
          "internalType": "uint256",
          "name": "_index",
          "type": "uint256"
        }
      ],
      "name": "getStakeInfo",
      "outputs": [
        {
          "components": [
            {
              "internalType": "address",
              "name": "owner",
              "type": "address"
            },
            {
              "internalType": "uint256",
              "name": "amount",
              "type": "uint256"
            },
            {
              "internalType": "uint256",
              "name": "startTime",
              "type": "uint256"
            },
            {
              "internalType": "uint256",
              "name": "lockPeriod",
              "type": "uint256"
            },
            {
              "internalType": "uint256",
              "name": "claimedRewards",
              "type": "uint256"
            },
            {
              "internalType": "uint256",
              "name": "lockedRewards",
              "type": "uint256"
            },
            {
              "internalType": "bool",
              "name": "unstaked",
              "type": "bool"
            }
          ],
          "internalType": "struct StakeCore.StakeInfo",
          "name": "",
          "type": "tuple"
        }
      ],
      "stateMutability": "view",
      "type": "function"
    },
    {
      "inputs": [
        {
          "internalType": "address",
          "name": "_staker",
          "type": "address"
        }
      ],
      "name": "getStakeInfoByAddress",
      "outputs": [
        {
          "components": [
            {
              "internalType": "address",
              "name": "owner",
              "type": "address"
            },
            {
              "internalType": "uint256",
              "name": "amount",
              "type": "uint256"
            },
            {
              "internalType": "uint256",
              "name": "startTime",
              "type": "uint256"
            },
            {
              "internalType": "uint256",
              "name": "lockPeriod",
              "type": "uint256"
            },
            {
              "internalType": "uint256",
              "name": "claimedRewards",
              "type": "uint256"
            },
            {
              "internalType": "uint256",
              "name": "lockedRewards",
              "type": "uint256"
            },
            {
              "internalType": "bool",
              "name": "unstaked",
              "type": "bool"
            }
          ],
          "internalType": "struct StakeCore.StakeInfo[]",
          "name": "",
          "type": "tuple[]"
        }
      ],
      "stateMutability": "view",
      "type": "function"
    },
    {
      "inputs": [
        {
          "internalType": "uint256",
          "name": "start",
          "type": "uint256"
        },
        {
          "internalType": "uint256",
          "name": "end",
          "type": "uint256"
        }
      ],
      "name": "getStakeInfoByPage",
      "outputs": [
        {
          "components": [
            {
              "internalType": "address",
              "name": "owner",
              "type": "address"
            },
            {
              "internalType": "uint256",
              "name": "amount",
              "type": "uint256"
            },
            {
              "internalType": "uint256",
              "name": "startTime",
              "type": "uint256"
            },
            {
              "internalType": "uint256",
              "name": "lockPeriod",
              "type": "uint256"
            },
            {
              "internalType": "uint256",
              "name": "claimedRewards",
              "type": "uint256"
            },
            {
              "internalType": "uint256",
              "name": "lockedRewards",
              "type": "uint256"
            },
            {
              "internalType": "bool",
              "name": "unstaked",
              "type": "bool"
            }
          ],
          "internalType": "struct StakeCore.StakeInfo[]",
          "name": "",
          "type": "tuple[]"
        }
      ],
      "stateMutability": "view",
      "type": "function"
    },
    {
      "inputs": [
        {
          "internalType": "uint256",
          "name": "_index",
          "type": "uint256"
        }
      ],
      "name": "getUnlockedInstallmentRewards",
      "outputs": [
        {
          "internalType": "uint256",
          "name": "",
          "type": "uint256"
        }
      ],
      "stateMutability": "view",
      "type": "function"
    },
    {
      "inputs": [
        {
          "internalType": "address",
          "name": "_bf",
          "type": "address"
        }
      ],
      "name": "initBeneficiary",
      "outputs": [],
      "stateMutability": "nonpayable",
      "type": "function"
    },
    {
      "inputs": [],
      "name": "installmentNum",
      "outputs": [
        {
          "internalType": "uint256",
          "name": "",
          "type": "uint256"
        }
      ],
      "stateMutability": "view",
      "type": "function"
    },
    {
      "inputs": [],
      "name": "lockPeriod",
      "outputs": [
        {
          "internalType": "uint256",
          "name": "",
          "type": "uint256"
        }
      ],
      "stateMutability": "view",
      "type": "function"
    },
    {
      "inputs": [],
      "name": "minStakeAmount",
      "outputs": [
        {
          "internalType": "uint256",
          "name": "",
          "type": "uint256"
        }
      ],
      "stateMutability": "view",
      "type": "function"
    },
    {
      "inputs": [],
      "name": "requiredCollateral",
      "outputs": [
        {
          "internalType": "uint256",
          "name": "",
          "type": "uint256"
        }
      ],
      "stateMutability": "view",
      "type": "function"
    },
    {
      "inputs": [
        {
          "internalType": "uint256",
          "name": "_amount",
          "type": "uint256"
        }
      ],
      "name": "stake",
      "outputs": [],
      "stateMutability": "nonpayable",
      "type": "function"
    },
    {
      "inputs": [
        {
          "internalType": "uint256",
          "name": "",
          "type": "uint256"
        }
      ],
      "name": "stakeRecords",
      "outputs": [
        {
          "internalType": "address",
          "name": "owner",
          "type": "address"
        },
        {
          "internalType": "uint256",
          "name": "amount",
          "type": "uint256"
        },
        {
          "internalType": "uint256",
          "name": "startTime",
          "type": "uint256"
        },
        {
          "internalType": "uint256",
          "name": "lockPeriod",
          "type": "uint256"
        },
        {
          "internalType": "uint256",
          "name": "claimedRewards",
          "type": "uint256"
        },
        {
          "internalType": "uint256",
          "name": "lockedRewards",
          "type": "uint256"
        },
        {
          "internalType": "bool",
          "name": "unstaked",
          "type": "bool"
        }
      ],
      "stateMutability": "view",
      "type": "function"
    },
    {
      "inputs": [],
      "name": "stakerRewardShare",
      "outputs": [
        {
          "internalType": "uint256",
          "name": "",
          "type": "uint256"
        }
      ],
      "stateMutability": "view",
      "type": "function"
    },
    {
      "inputs": [],
      "name": "token",
      "outputs": [
        {
          "internalType": "contract IERC20",
          "name": "",
          "type": "address"
        }
      ],
      "stateMutability": "view",
      "type": "function"
    },
    {
      "inputs": [],
      "name": "totalCollateral",
      "outputs": [
        {
          "internalType": "uint256",
          "name": "",
          "type": "uint256"
        }
      ],
      "stateMutability": "view",
      "type": "function"
    },
    {
      "inputs": [],
      "name": "totalSecurityDeposit",
      "outputs": [
        {
          "internalType": "uint256",
          "name": "",
          "type": "uint256"
        }
      ],
      "stateMutability": "view",
      "type": "function"
    },
    {
      "inputs": [
        {
          "internalType": "uint256",
          "name": "_index",
          "type": "uint256"
        }
      ],
      "name": "unstake",
      "outputs": [],
      "stateMutability": "nonpayable",
      "type": "function"
    },
    {
      "inputs": [
        {
          "internalType": "address",
          "name": "",
          "type": "address"
        },
        {
          "internalType": "uint256",
          "name": "",
          "type": "uint256"
        }
      ],
      "name": "userStakeIndexes",
      "outputs": [
        {
          "internalType": "uint256",
          "name": "",
          "type": "uint256"
        }
      ],
      "stateMutability": "view",
      "type": "function"
    },
    {
      "inputs": [
        {
          "internalType": "uint256",
          "name": "_amount",
          "type": "uint256"
        }
      ],
      "name": "withdrawSecurity",
      "outputs": [],
      "stateMutability": "nonpayable",
      "type": "function"
    }
  ],
  "bytecode": "0x6101403461019657601f611afc38819003918201601f19168301916001600160401b0383118484101761019b57808492608094604052833981010312610196578051906001600160a01b0382168203610196576020810151606060408301519201519260805260a05260c052671bc16d674ec8000060e0526101009068056bc75e2d6310000082523360018060a01b031960055416176005556101209081526040519061194a92836101b284396080518381816101730152818161050c01528181610c1801528181610d3401528181610e5701528181610f330152611060015260a05183818161042b0152818161053f01528181610a3301528181610ab501528181610b9b0152818161124e015281816116c10152611740015260c051838181610480015281816105a901528181610f7b0152611086015260e05183818161044c0152818161057b01528181610a5401528181610af001528181610bbc0152818161126f01526116e20152518281816101e501526104cc0152518181816103b50152818161176e0152818161179101526117c80152f35b600080fd5b634e487b7160e01b600052604160045260246000fdfe6040608081526004908136101561001557600080fd5b600091823560e01c9081620dfbcd1461121c5781623ca4dc1461119c5781630962ef7914610fd85781630981348214610f9e5781631b70952014610f6357816322aeddfd14610edf57816327f34ca414610e095781632e17de7814610c9d5781632e4150d414610b4b57816338af3eed14610b135781633bcfc4b814610ad85781633fd8b02f14610a9d5781634ac8eb5f14610a805781634d3e853614610a065781635b1f335f146109e75781635d519e89146109145781638191fea714610833578163a694fc3a146104ac578163a82091bc146103fb578163aaf5eb68146103d8578163b078049e1461039d578163b2a94e8a1461037d578163b53105a31461035e578163cc4a3eed14610307578163e77bc97f146102e0578163e949c6601461020857508063f1887684146101ce578063f851a440146101a65763fc0c546a1461016057600080fd5b346101a257816003193601126101a257517f00000000000000000000000000000000000000000000000000000000000000006001600160a01b03168152602090f35b5080fd5b50346101a257816003193601126101a25760055490516001600160a01b039091168152602090f35b50346101a257816003193601126101a257602090517f00000000000000000000000000000000000000000000000000000000000000008152f35b905082346102dd57826003193601126102dd575080359060243590600354821161029a575061023f61023a8383611609565b6118a1565b91805b82811061025a57845180610256868261134a565b0390f35b8061028f61026a61029593611293565b5061027e6102788685611609565b9161182b565b6102888289611900565b5286611900565b506118f1565b610242565b606490602085519162461bcd60e51b8352820152601760248201527f456e6420696e646578206f7574206f6620626f756e64730000000000000000006044820152fd5b80fd5b8284346102dd5760203660031901126102dd575061030060209235611710565b9051908152f35b8284346102dd57816003193601126102dd5761032161132f565b6001600160a01b03168152602092909252808220805460243593908410156102dd575060209261035091611392565b91905490519160031b1c8152f35b5050346101a257816003193601126101a2576020906002549051908152f35b8284346102dd5760203660031901126102dd575061030060209235611699565b5050346101a257816003193601126101a257602090517f00000000000000000000000000000000000000000000000000000000000000008152f35b5050346101a257816003193601126101a25760209051670de0b6b3a76400008152f35b8284346102dd5760203660031901126102dd5750610300670de0b6b3a76400006104786020946301e133806104707f00000000000000000000000000000000000000000000000000000000000000007f0000000000000000000000000000000000000000000000000000000000000000611666565b049035611666565b0460646104a57f000000000000000000000000000000000000000000000000000000000000000083611666565b0490611609565b90503461082f576020918260031936011261082b5781359283156107ea577f00000000000000000000000000000000000000000000000000000000000000008410610790576104fc848654611400565b60025410610759576105308430337f0000000000000000000000000000000000000000000000000000000000000000611477565b61053b848654611400565b85557f00000000000000000000000000000000000000000000000000000000000000009260646105ce670de0b6b3a76400006105a66301e1338061059f897f0000000000000000000000000000000000000000000000000000000000000000611666565b0489611666565b047f000000000000000000000000000000000000000000000000000000000000000090611666565b048351906105db82611423565b33825283820191878352858101914283526060820188815260808301908b825260a0840192835260c08401948c865260035496680100000000000000009788811015610746578060016106319201600355611293565b9690966107345790600696959493929160018060a01b039051166bffffffffffffffffffffffff60a01b8754161786555160018601555160028501555160038401555186830155516005820155019051151560ff801983541691161790553387528183528387209060035491600019938484019384116107215781549283101561070e5750906106c691600182018155611392565b909283549160031b92831b921b1916179055815193845242908401528201527ff556991011e831bcfac4f406d547e5e32cdd98267efab83935230d5f8d02c44660603392a280f35b634e487b7160e01b8a5260419052602489fd5b634e487b7160e01b8a5260119052602489fd5b634e487b7160e01b8f528e8a5260248ffd5b634e487b7160e01b8f5260418a5260248ffd5b905162461bcd60e51b81529182015260136024820152724e6f20656e6f75676820616c6c6f77616e636560681b6044820152606490fd5b905162461bcd60e51b815291820152603060248201527f416d6f756e74206d7573742062652067726561746572207468616e206d696e6960448201526f1b5d5b481cdd185ad948185b5bdd5b9d60821b6064820152608490fd5b905162461bcd60e51b815291820152601d60248201527f416d6f756e74206d7573742062652067726561746572207468616e20300000006044820152606490fd5b8380fd5b8280fd5b839150346101a25760203660031901126101a25761084f61132f565b6005546001600160a01b0391829161086a90831633146113aa565b169182156108df576006549182166108b357506001600160a01b03191681176006557ff7c0deaf13c001dd193caef8b04ef6318761597467ce639d75a8d83f364738a48280a280f35b606490602086519162461bcd60e51b83528201526006602482015265125b9a5d195960d21b6044820152fd5b606490602086519162461bcd60e51b8352820152600f60248201526e496e76616c6964206164647265737360881b6044820152fd5b839150346101a2576020908160031936011261082f576001600160a01b0361093a61132f565b16835281528282209083518092839183825491828152019186528386209386905b8282106109cd5750505061097192500382611455565b61097b81516118a1565b915b81518110156109c057806109a66109a061099a6109bb9486611900565b51611293565b5061182b565b6109b08286611900565b5261028f8185611900565b61097d565b835180610256858261134a565b85548452600195860195879550938101939091019061095b565b5050346101a257816003193601126101a2576020906001549051908152f35b8284346102dd5760203660031901126102dd5750670de0b6b3a7640000610a786020936301e133806104707f00000000000000000000000000000000000000000000000000000000000000007f0000000000000000000000000000000000000000000000000000000000000000611666565b049051908152f35b5050346101a257816003193601126101a257602091549051908152f35b5050346101a257816003193601126101a257602090517f00000000000000000000000000000000000000000000000000000000000000008152f35b5050346101a257816003193601126101a257602090517f00000000000000000000000000000000000000000000000000000000000000008152f35b5050346101a257816003193601126101a25760609060018060a01b036006541690600754906008549181519384526020840152820152f35b90503461082f57602036600319011261082f57803590610b7660018060a01b036005541633146113aa565b81670de0b6b3a7640000610be7610b91600254885490611609565b6301e13380610be07f00000000000000000000000000000000000000000000000000000000000000007f0000000000000000000000000000000000000000000000000000000000000000611666565b0490611666565b0410610c6657509081610c3c7fb372a95f0bc9758f53fc7d78b0247e056db4b1b7503310716f1417d7828474ce93337f0000000000000000000000000000000000000000000000000000000000000000611616565b610c4881600154611609565b80600155610c5581611699565b60025582519182526020820152a180f35b606490602084519162461bcd60e51b835282015260116024820152704e6f20656e6f7567682062616c616e636560781b6044820152fd5b9190503461082f57602036600319011261082f57813591610cbd83611293565b5080549091906001600160a01b03163303610dda57610ce56002830154600384015490611400565b4210610d9f57600682019081549060ff8216610d6a575091600191827ff960dbf9e5d0682f7a298ed974e33a28b4464914b7a2bfac12ae419a9afeb280959460ff191617905501610d588154337f0000000000000000000000000000000000000000000000000000000000000000611616565b5492815193845260208401523392a280f35b606490602086519162461bcd60e51b8352820152600f60248201526e105b1c9958591e4818db185a5b5959608a1b6044820152fd5b606490602084519162461bcd60e51b83528201526015602482015274131bd8dac81c195c9a5bd9081b9bdd08195b991959605a1b6044820152fd5b606490602084519162461bcd60e51b835282015260096024820152682737ba1037bbb732b960b91b6044820152fd5b905082346102dd57806003193601126102dd57506006546001600160a01b03163303610eab5760208260075490610e4d610e466008548094611609565b8093611400565b600855610e7b82337f0000000000000000000000000000000000000000000000000000000000000000611616565b80518281527f04a52e5706eb4befca0e972d95f8544c864d5305e4e302c9df1771bf8e24d0d1843392a251908152f35b6020606492519162461bcd60e51b8352820152600f60248201526e4e6f742042656e656669636961727960881b6044820152fd5b9190503461082f57602036600319011261082f577f4f13e640708492ab2314a33d2f72e092dcc555131593c52a1bebd8c0f099832d9135610f2b60018060a01b036005541633146113aa565b610f578130337f0000000000000000000000000000000000000000000000000000000000000000611477565b610c4881600154611400565b5050346101a257816003193601126101a257602090517f00000000000000000000000000000000000000000000000000000000000000008152f35b8284346102dd5760203660031901126102dd5750610fd6610fcd6109a060e094610fc66117f3565b5035611293565b915180926112e4565bf35b8383346101a25760203660031901126101a257823590610ff782611293565b5080546001600160a01b0391908216338114801561118f575b1561114c5761101e85611710565b908783018054928084101561111b5791839161104261104b97969561108495611609565b96878094611400565b90556005840161105c838254611609565b90557f0000000000000000000000000000000000000000000000000000000000000000611616565b7f00000000000000000000000000000000000000000000000000000000000000008060640360648111611108577fdacbdde355ba930696a362ea6738feb9f8bd52dfb3d81947558fd3217e23e325969798506110f4916110e76110ec9287611666565b611679565b600754611400565b60075554169382519182526020820152a280f35b634e487b7160e01b885260118952602488fd5b865162461bcd60e51b81526020818c0152600b60248201526a43616e277420636c61696d60a81b6044820152606490fd5b835162461bcd60e51b8152602081890152601860248201527f4e6f74206f776e6572206f722042656e656669636961727900000000000000006044820152606490fd5b5082600654168114611010565b90503461082f57602036600319011261082f578035926003548410156102dd57506111c860e093611293565b5060018060a01b038154169260018201549260028301546003840154918401549260ff600660058701549601541695815197885260208801528601526060850152608084015260a0830152151560c0820152f35b8284346102dd5760203660031901126102dd57506064610a78670de0b6b3a76400006105a66020956301e133806104707f00000000000000000000000000000000000000000000000000000000000000007f0000000000000000000000000000000000000000000000000000000000000000611666565b6003548110156112ce576007906003600052027fc2575a0e9e593c00f959f8c92f12db2869c3395a3b0502d05e2516446f71f85b0190600090565b634e487b7160e01b600052603260045260246000fd5b60c0809160018060a01b0381511684526020810151602085015260408101516040850152606081015160608501526080810151608085015260a081015160a085015201511515910152565b600435906001600160a01b038216820361134557565b600080fd5b6020908160408183019282815285518094520193019160005b828110611371575050505090565b909192938260e08261138660019489516112e4565b01950193929101611363565b80548210156112ce5760005260206000200190600090565b156113b157565b60405162461bcd60e51b815260206004820152602160248201527f4f6e6c792061646d696e2063616e2063616c6c20746869732066756e6374696f6044820152603760f91b6064820152608490fd5b9190820180921161140d57565b634e487b7160e01b600052601160045260246000fd5b60e0810190811067ffffffffffffffff82111761143f57604052565b634e487b7160e01b600052604160045260246000fd5b90601f8019910116810190811067ffffffffffffffff82111761143f57604052565b6040516323b872dd60e01b60208201526001600160a01b03928316602482015292909116604483015260648083019390935291815260a081019181831067ffffffffffffffff84111761143f576114d0926040526114d2565b565b60018060a01b031690600080826020829451910182865af13d1561159a573d9067ffffffffffffffff8211611586579061152e916040519161151e6020601f19601f8401160184611455565b82523d84602084013e5b846115a6565b90815191821515928361155e575b5050506115465750565b60249060405190635274afe760e01b82526004820152fd5b8192935090602091810103126101a25760200151908115918215036102dd575038808061153c565b634e487b7160e01b83526041600452602483fd5b61152e90606090611528565b906115cd57508051156115bb57805190602001fd5b604051630a12f52160e11b8152600490fd5b81511580611600575b6115de575090565b604051639996b31560e01b81526001600160a01b039091166004820152602490fd5b50803b156115d6565b9190820391821161140d57565b60405163a9059cbb60e01b60208201526001600160a01b039092166024830152604480830193909352918152608081019167ffffffffffffffff83118284101761143f576114d0926040526114d2565b8181029291811591840414171561140d57565b8115611683570490565b634e487b7160e01b600052601260045260246000fd5b670de0b6b3a76400009081810291818304149015171561140d5761170d906301e133806117067f00000000000000000000000000000000000000000000000000000000000000007f0000000000000000000000000000000000000000000000000000000000000000611666565b0490611679565b90565b61171c61170d91611293565b5061173e60026117356004840154600585015490611400565b92015442611609565b7f0000000000000000000000000000000000000000000000000000000000000000908181106117bb5750506117b67f0000000000000000000000000000000000000000000000000000000000000000915b7f000000000000000000000000000000000000000000000000000000000000000090611679565b611666565b6117b6916110e76117ed927f000000000000000000000000000000000000000000000000000000000000000090611666565b9161178f565b6040519061180082611423565b8160c06000918281528260208201528260408201528260608201528260808201528260a08201520152565b9060405161183881611423565b82546001600160a01b0316815260018301546020820152600283015460408201526003830154606082015260048301546080820152600583015460a082015260069092015460ff16151560c0830152565b67ffffffffffffffff811161143f5760051b60200190565b906118ab82611889565b6118b86040519182611455565b82815280926118c9601f1991611889565b019060005b8281106118da57505050565b6020906118e56117f3565b828285010152016118ce565b600019811461140d5760010190565b80518210156112ce5760209160051b01019056fea2646970667358221220b681879cfd8e3a745382646ae75e1db4e46c00838b4d935dc9c2491ab5d508d164736f6c63430008140033",
  "linkReferences": {},
  "deployedLinkReferences": {}
}