{
  "_format": "hh-sol-artifact-1",
  "contractName": "BeneficiaryCore",
  "sourceName": "src/contracts/BeneficiaryCore.sol",
  "abi": [
    {
      "inputs": [
        {
          "internalType": "contract IERC20",
          "name": "_token",
          "type": "address"
        },
        {
          "internalType": "address",
          "name": "_admin",
          "type": "address"
        },
        {
          "internalType": "address",
          "name": "_stakeCore",
          "type": "address"
        }
      ],
      "stateMutability": "nonpayable",
      "type": "constructor"
    },
    {
      "inputs": [
        {
          "internalType": "address",
          "name": "target",
          "type": "address"
        }
      ],
      "name": "AddressEmptyCode",
      "type": "error"
    },
    {
      "inputs": [
        {
          "internalType": "address",
          "name": "account",
          "type": "address"
        }
      ],
      "name": "AddressInsufficientBalance",
      "type": "error"
    },
    {
      "inputs": [],
      "name": "FailedInnerCall",
      "type": "error"
    },
    {
      "inputs": [
        {
          "internalType": "address",
          "name": "token",
          "type": "address"
        }
      ],
      "name": "SafeERC20FailedOperation",
      "type": "error"
    },
    {
      "anonymous": false,
      "inputs": [
        {
          "indexed": true,
          "internalType": "address",
          "name": "shareholder",
          "type": "address"
        },
        {
          "indexed": false,
          "internalType": "uint256",
          "name": "allowance",
          "type": "uint256"
        }
      ],
      "name": "AllowanceSet",
      "type": "event"
    },
    {
      "anonymous": false,
      "inputs": [
        {
          "indexed": false,
          "internalType": "uint256",
          "name": "amount",
          "type": "uint256"
        }
      ],
      "name": "RewardsCollected",
      "type": "event"
    },
    {
      "anonymous": false,
      "inputs": [
        {
          "indexed": false,
          "internalType": "uint256",
          "name": "totalRewards",
          "type": "uint256"
        }
      ],
      "name": "RewardsDistributed",
      "type": "event"
    },
    {
      "anonymous": false,
      "inputs": [
        {
          "indexed": true,
          "internalType": "address",
          "name": "shareholder",
          "type": "address"
        },
        {
          "indexed": false,
          "internalType": "uint256",
          "name": "amount",
          "type": "uint256"
        }
      ],
      "name": "RewardsWithdrawn",
      "type": "event"
    },
    {
      "anonymous": false,
      "inputs": [
        {
          "indexed": true,
          "internalType": "address",
          "name": "shareholder",
          "type": "address"
        },
        {
          "indexed": false,
          "internalType": "uint256",
          "name": "allowance",
          "type": "uint256"
        }
      ],
      "name": "ShareholderAdded",
      "type": "event"
    },
    {
      "anonymous": false,
      "inputs": [
        {
          "indexed": true,
          "internalType": "address",
          "name": "shareholder",
          "type": "address"
        },
        {
          "indexed": false,
          "internalType": "uint256",
          "name": "shares",
          "type": "uint256"
        }
      ],
      "name": "SharesSet",
      "type": "event"
    },
    {
      "inputs": [
        {
          "internalType": "address",
          "name": "_owner",
          "type": "address"
        },
        {
          "internalType": "uint256",
          "name": "_allowance",
          "type": "uint256"
        }
      ],
      "name": "addShareholder",
      "outputs": [],
      "stateMutability": "nonpayable",
      "type": "function"
    },
    {
      "inputs": [],
      "name": "admin",
      "outputs": [
        {
          "internalType": "address",
          "name": "",
          "type": "address"
        }
      ],
      "stateMutability": "view",
      "type": "function"
    },
    {
      "inputs": [],
      "name": "claimRewards",
      "outputs": [],
      "stateMutability": "nonpayable",
      "type": "function"
    },
    {
      "inputs": [],
      "name": "collect",
      "outputs": [
        {
          "internalType": "uint256",
          "name": "",
          "type": "uint256"
        }
      ],
      "stateMutability": "nonpayable",
      "type": "function"
    },
    {
      "inputs": [
        {
          "internalType": "address",
          "name": "_shareholder",
          "type": "address"
        }
      ],
      "name": "getShareholderInfo",
      "outputs": [
        {
          "components": [
            {
              "internalType": "address",
              "name": "owner",
              "type": "address"
            },
            {
              "internalType": "uint256",
              "name": "allowance",
              "type": "uint256"
            },
            {
              "internalType": "uint256",
              "name": "grantedAmount",
              "type": "uint256"
            },
            {
              "internalType": "uint256",
              "name": "claimedAmount",
              "type": "uint256"
            },
            {
              "internalType": "uint256",
              "name": "share",
              "type": "uint256"
            }
          ],
          "internalType": "struct BeneficiaryCore.ShareholderInfo",
          "name": "",
          "type": "tuple"
        }
      ],
      "stateMutability": "view",
      "type": "function"
    },
    {
      "inputs": [],
      "name": "getTotalShares",
      "outputs": [
        {
          "internalType": "uint256",
          "name": "totalShares",
          "type": "uint256"
        }
      ],
      "stateMutability": "view",
      "type": "function"
    },
    {
      "inputs": [],
      "name": "requiredCollateral",
      "outputs": [
        {
          "internalType": "uint256",
          "name": "",
          "type": "uint256"
        }
      ],
      "stateMutability": "view",
      "type": "function"
    },
    {
      "inputs": [
        {
          "internalType": "address",
          "name": "_shareHolder",
          "type": "address"
        },
        {
          "internalType": "uint256",
          "name": "_allowance",
          "type": "uint256"
        }
      ],
      "name": "setAllowance",
      "outputs": [],
      "stateMutability": "nonpayable",
      "type": "function"
    },
    {
      "inputs": [
        {
          "internalType": "address[]",
          "name": "_owners",
          "type": "address[]"
        },
        {
          "internalType": "uint256[]",
          "name": "_shares",
          "type": "uint256[]"
        }
      ],
      "name": "setShares",
      "outputs": [],
      "stateMutability": "nonpayable",
      "type": "function"
    },
    {
      "inputs": [
        {
          "internalType": "uint256",
          "name": "",
          "type": "uint256"
        }
      ],
      "name": "shareholders",
      "outputs": [
        {
          "internalType": "address",
          "name": "",
          "type": "address"
        }
      ],
      "stateMutability": "view",
      "type": "function"
    },
    {
      "inputs": [
        {
          "internalType": "address",
          "name": "",
          "type": "address"
        }
      ],
      "name": "shareholdersInfo",
      "outputs": [
        {
          "internalType": "address",
          "name": "owner",
          "type": "address"
        },
        {
          "internalType": "uint256",
          "name": "allowance",
          "type": "uint256"
        },
        {
          "internalType": "uint256",
          "name": "grantedAmount",
          "type": "uint256"
        },
        {
          "internalType": "uint256",
          "name": "claimedAmount",
          "type": "uint256"
        },
        {
          "internalType": "uint256",
          "name": "share",
          "type": "uint256"
        }
      ],
      "stateMutability": "view",
      "type": "function"
    },
    {
      "inputs": [],
      "name": "stakeCore",
      "outputs": [
        {
          "internalType": "contract IStakeCore",
          "name": "",
          "type": "address"
        }
      ],
      "stateMutability": "view",
      "type": "function"
    },
    {
      "inputs": [],
      "name": "token",
      "outputs": [
        {
          "internalType": "contract IERC20",
          "name": "",
          "type": "address"
        }
      ],
      "stateMutability": "view",
      "type": "function"
    },
    {
      "inputs": [],
      "name": "totalCollateral",
      "outputs": [
        {
          "internalType": "uint256",
          "name": "",
          "type": "uint256"
        }
      ],
      "stateMutability": "view",
      "type": "function"
    },
    {
      "inputs": [],
      "name": "totalSecurityDeposit",
      "outputs": [
        {
          "internalType": "uint256",
          "name": "",
          "type": "uint256"
        }
      ],
      "stateMutability": "view",
      "type": "function"
    },
    {
      "inputs": [],
      "name": "withdrawRewards",
      "outputs": [
        {
          "internalType": "uint256",
          "name": "",
          "type": "uint256"
        }
      ],
      "stateMutability": "nonpayable",
      "type": "function"
    }
  ],
  "bytecode": "0x60a03461022a576001600160401b0390601f6111e638819003918201601f191683019291908484118385101761018c57816060928492604096875283398101031261022a578051906001600160a01b03808316830361022a57602090806100728661006b85870161022f565b950161022f565b93169283156101e65781169384156101a25760805260018060a01b03199383856005541617600555846006541617600655600354906801000000000000000082101561018c576001820180600355821015610176576000916003835283832001848682541617905585519460a086019786891090891117610162578697600496975284875283870191600019835288808901948086528860608b019782895260808c019960648b5283525220975116908754161786555160018601555160028501555160038401555191015551610fa2908161024482396080518181816102db015281816103640152610a810152f35b634e487b7160e01b83526041600452602483fd5b634e487b7160e01b600052603260045260246000fd5b634e487b7160e01b600052604160045260246000fd5b855162461bcd60e51b815260048101849052601f60248201527f5374616b65436f726520616464726573732063616e2774206265207a65726f006044820152606490fd5b855162461bcd60e51b815260048101849052601b60248201527f41646d696e20616464726573732063616e2774206265207a65726f00000000006044820152606490fd5b600080fd5b51906001600160a01b038216820361022a5756fe6040608081526004908136101561001557600080fd5b600091823560e01c8063310ec4a714610b0d578063372500ab14610a245780634ac8eb5f14610a075780635b1f335f146109e85780635e6056bb1461093357806375724990146107ca57806384aab02f146107a1578063ab377daa14610761578063b35c7b2c146106fc578063b53105a3146106dd578063c7b8981c1461056b578063d5002f2e146104f4578063e522538114610337578063f851a4401461030e578063fc0c546a146102c65763fd636b26146100d157600080fd5b346102c257816003193601126102c25767ffffffffffffffff9181358381116102be576101019036908401610c6a565b936024359081116102ba576101199036908501610c6a565b9060018060a01b039261013184600554163314610c9b565b8287036102685787805b88821061024357606491501161020057875b878110610158578880f35b808561017061016b6101fb948c87610d6a565b610d87565b168a52602088815261018887898d2054161515610d9b565b89876101a461016b8561019c818c8c610d6a565b359489610d6a565b168c5289825289898d2001557f522f3f2a27cd0f69d30fa5a47beb584851a1fbf6690c951ef7e1014bfe4c142c6101df61016b848d88610d6a565b91886101ec858a8a610d6a565b35938b519485521692a2610d45565b61014d565b845162461bcd60e51b8152602081880152601860248201527f546f74616c20736861726573206d7573742062652031303000000000000000006044820152606490fd5b61025c61026291610255848888610d6a565b3590610d7a565b91610d45565b9061013b565b845162461bcd60e51b8152602081880152602660248201527f4f776e65727320616e6420736861726573206c656e677468206d75737420626560448201526508195c5d585b60d21b6064820152608490fd5b8580fd5b8480fd5b8280fd5b50503461030a578160031936011261030a57517f00000000000000000000000000000000000000000000000000000000000000006001600160a01b03168152602090f35b5080fd5b50503461030a578160031936011261030a5760055490516001600160a01b039091168152602090f35b50346102c257826003193601126102c2576005546001600160a01b0391908216610362338214610c9b565b7f0000000000000000000000000000000000000000000000000000000000000000908451926370a0823160e01b8452308185015260209687856024818988165afa9485156104e85781956104b9575b508095816003918254935b84811061045e575050505050848410610428575082916103ea916103e4866104219796610ddb565b91610de8565b7f9b8947353280f3b9aa1b67b97ecc2e031ef34d13dc6fa2bca31efc7ff0d29938856104168484610ddb565b8651908152a1610ddb565b9051908152f35b855162461bcd60e51b8152908101879052601060248201526f2737ba1032b737bab3b4103a37b5b2b760811b6044820152606490fd5b8161046882610c1d565b905490861b1c168352858c528a832084600282015491015490818111610499575b505061049490610d45565b6103bc565b9a6104ab6104b192610494949d610ddb565b90610d7a565b999038610489565b9094508781813d83116104e1575b6104d18183610d23565b810103126102be575193386103b1565b503d6104c7565b508651903d90823e3d90fd5b508234610568578060031936011261056857908180916003918254925b838510610522576020868851908152f35b909192939461055961055f9161053788610c1d565b905490851b1c6001600160a01b03168552602086905288852086015490610d7a565b95610d45565b93929190610511565b80fd5b5090346102c257826003193601126102c2578260018060a01b03928360065416928051936309fcd32960e21b85528483816020998a945af19384156106d35783946106a4575b50825b60038054821015610649579086610627926105ce83610c1d565b9054911b1c16855283885282852060018101546002820191825490878284111561063f576105ff8361062095610ddb565b9101546064908282610611838f610f59565b04111561062c57505090610d7a565b9055610d45565b6105b4565b6106389192508b610f59565b0490610d7a565b5050505050610d45565b8786847f6d1c76d614228b523baa4dcd9539e2c713b54ff4ab3ff2d1627e7f6cd32be442838251848152a180518281527f8a43c4352486ec339f487f64af78ca5cbf06cd47833f073d3baf3a193e503161843392a251908152f35b9093508581813d83116106cc575b6106bc8183610d23565b810103126102c2575192386105b1565b503d6106b2565b81513d85823e3d90fd5b50503461030a578160031936011261030a576020906002549051908152f35b5090346102c25760203660031901126102c25760a0926001600160a01b0390829082610726610c02565b168152846020522090815416926001820154926002830154916003840154930154938151958652602086015284015260608301526080820152f35b50346102c25760203660031901126102c2573591600354831015610568575061078b602092610c1d565b60018060a01b0391549060031b1c169051908152f35b50503461030a578160031936011261030a5760065490516001600160a01b039091168152602090f35b5091903461030a578060031936011261030a576107e5610c02565b906024359060018060a01b03809361080282600554163314610c9b565b1692838552856020528082862054166108f057600354680100000000000000008110156108dd57917f3bc19114ca6a687ffd9445c87615db284e96364365d72b010ec53244b45e561b93918761086085600160209701600355610c1d565b81549060031b90848a831b921b191617905582519161087e83610cf1565b8783528583018581528484018a815260608501918b835260808601938c85528b8d52858a52878d209651166bffffffffffffffffffffffff60a01b8754161786555160018601555160028501555160038401555191015551908152a280f35b634e487b7160e01b865260418752602486fd5b815162461bcd60e51b8152602081880152601a60248201527f5368617265686f6c64657220616c7265616479206578697374730000000000006044820152606490fd5b5090346102c25760203660031901126102c257918260a093610953610c02565b92806080835161096281610cf1565b82815282602082015282858201528260608201520152600180871b03809416815284602052209080519261099584610cf1565b825416938484526001830154602085019081526080600285015492848701938452600386015495606088019687520154950194855282519586525160208601525190840152516060830152516080820152f35b50503461030a578160031936011261030a576020906001549051908152f35b50503461030a578160031936011261030a57602091549051908152f35b5091903461030a578160031936011261030a5733825282602052808220610a553360018060a01b0383541614610d9b565b600281016003815492019182549586821115610add5750610a7e610aaf949596610aa592610ddb565b337f0000000000000000000000000000000000000000000000000000000000000000610de8565b5480915580610ddb565b90519081527f8a43c4352486ec339f487f64af78ca5cbf06cd47833f073d3baf3a193e50316160203392a280f35b606490602086519162461bcd60e51b8352820152600a6024820152694e6f207265776172647360b01b6044820152fd5b50346102c257816003193601126102c257610b26610c02565b9160243591610b5b60018060a01b038095610b4682600554163314610c9b565b16948587528260205283872054161515610d9b565b83855280602052600382862001548310610baa57916020917ffe8c0d8594f34b56806542999bd528bee3ffe8a95e165d8e5c104f0b97cf8962938587528352816001828820015551908152a280f35b6020608492519162461bcd60e51b8352820152602d60248201527f416c6c6f77616e6365206d7573742062652067726561746572207468616e206360448201526c1b185a5b595908185b5bdd5b9d609a1b6064820152fd5b600435906001600160a01b0382168203610c1857565b600080fd5b600354811015610c545760036000527fc2575a0e9e593c00f959f8c92f12db2869c3395a3b0502d05e2516446f71f85b0190600090565b634e487b7160e01b600052603260045260246000fd5b9181601f84011215610c185782359167ffffffffffffffff8311610c18576020808501948460051b010111610c1857565b15610ca257565b60405162461bcd60e51b815260206004820152602160248201527f4f6e6c792061646d696e2063616e2063616c6c20746869732066756e6374696f6044820152603760f91b6064820152608490fd5b60a0810190811067ffffffffffffffff821117610d0d57604052565b634e487b7160e01b600052604160045260246000fd5b90601f8019910116810190811067ffffffffffffffff821117610d0d57604052565b6000198114610d545760010190565b634e487b7160e01b600052601160045260246000fd5b9190811015610c545760051b0190565b91908201809211610d5457565b356001600160a01b0381168103610c185790565b15610da257565b60405162461bcd60e51b81526020600482015260116024820152702737ba10309039b430b932b437b63232b960791b6044820152606490fd5b91908203918211610d5457565b60405163a9059cbb60e01b602082019081526001600160a01b039384166024830152604480830195909552938152929167ffffffffffffffff916080850183811186821017610d0d576040521692600080938192519082875af13d15610ee9573d918211610ed55790610e7d9160405191610e6d6020601f19601f8401160184610d23565b82523d84602084013e5b84610ef6565b908151918215159283610ead575b505050610e955750565b60249060405190635274afe760e01b82526004820152fd5b81929350906020918101031261030a5760200151908115918215036105685750388080610e8b565b634e487b7160e01b83526041600452602483fd5b610e7d9150606090610e77565b90610f1d5750805115610f0b57805190602001fd5b604051630a12f52160e11b8152600490fd5b81511580610f50575b610f2e575090565b604051639996b31560e01b81526001600160a01b039091166004820152602490fd5b50803b15610f26565b81810292918115918404141715610d545756fea2646970667358221220d6837e0a950935d92b39de074c43e51a64411a37b5d0587dbfc10c80be7c2bbf64736f6c63430008140033",
  "linkReferences": {},
  "deployedLinkReferences": {}
}