{
  "_format": "hh-sol-artifact-1",
  "contractName": "Core",
  "sourceName": "src/contracts/Core_bk.sol",
  "abi": [
    {
      "inputs": [
        {
          "internalType": "contract IERC20",
          "name": "_token",
          "type": "address"
        },
        {
          "internalType": "address",
          "name": "_beneficiary",
          "type": "address"
        }
      ],
      "stateMutability": "nonpayable",
      "type": "constructor"
    },
    {
      "inputs": [
        {
          "internalType": "address",
          "name": "target",
          "type": "address"
        }
      ],
      "name": "AddressEmptyCode",
      "type": "error"
    },
    {
      "inputs": [
        {
          "internalType": "address",
          "name": "account",
          "type": "address"
        }
      ],
      "name": "AddressInsufficientBalance",
      "type": "error"
    },
    {
      "inputs": [],
      "name": "FailedInnerCall",
      "type": "error"
    },
    {
      "inputs": [
        {
          "internalType": "address",
          "name": "token",
          "type": "address"
        }
      ],
      "name": "SafeERC20FailedOperation",
      "type": "error"
    },
    {
      "inputs": [],
      "name": "PRECISION",
      "outputs": [
        {
          "internalType": "uint256",
          "name": "",
          "type": "uint256"
        }
      ],
      "stateMutability": "view",
      "type": "function"
    },
    {
      "inputs": [
        {
          "internalType": "uint256",
          "name": "",
          "type": "uint256"
        }
      ],
      "name": "StakesList",
      "outputs": [
        {
          "internalType": "address",
          "name": "owner",
          "type": "address"
        },
        {
          "internalType": "uint256",
          "name": "amount",
          "type": "uint256"
        },
        {
          "internalType": "uint256",
          "name": "startTime",
          "type": "uint256"
        },
        {
          "internalType": "uint256",
          "name": "lockPeriod",
          "type": "uint256"
        },
        {
          "internalType": "bool",
          "name": "claimed",
          "type": "bool"
        },
        {
          "internalType": "bool",
          "name": "unstaked",
          "type": "bool"
        }
      ],
      "stateMutability": "view",
      "type": "function"
    },
    {
      "inputs": [],
      "name": "admin",
      "outputs": [
        {
          "internalType": "address",
          "name": "",
          "type": "address"
        }
      ],
      "stateMutability": "view",
      "type": "function"
    },
    {
      "inputs": [],
      "name": "apy",
      "outputs": [
        {
          "internalType": "uint256",
          "name": "",
          "type": "uint256"
        }
      ],
      "stateMutability": "view",
      "type": "function"
    },
    {
      "inputs": [],
      "name": "beneficiary",
      "outputs": [
        {
          "internalType": "address",
          "name": "owner",
          "type": "address"
        },
        {
          "internalType": "uint256",
          "name": "totalRewards",
          "type": "uint256"
        },
        {
          "internalType": "uint256",
          "name": "claimedRewards",
          "type": "uint256"
        }
      ],
      "stateMutability": "view",
      "type": "function"
    },
    {
      "inputs": [],
      "name": "claimBeneficiaryRewards",
      "outputs": [],
      "stateMutability": "nonpayable",
      "type": "function"
    },
    {
      "inputs": [
        {
          "internalType": "uint256",
          "name": "_index",
          "type": "uint256"
        }
      ],
      "name": "claimRewards",
      "outputs": [],
      "stateMutability": "nonpayable",
      "type": "function"
    },
    {
      "inputs": [
        {
          "internalType": "uint256",
          "name": "_amount",
          "type": "uint256"
        }
      ],
      "name": "deposit",
      "outputs": [],
      "stateMutability": "nonpayable",
      "type": "function"
    },
    {
      "inputs": [
        {
          "internalType": "uint256",
          "name": "_amount",
          "type": "uint256"
        }
      ],
      "name": "getCollateralBySecurityDeposit",
      "outputs": [
        {
          "internalType": "uint256",
          "name": "",
          "type": "uint256"
        }
      ],
      "stateMutability": "view",
      "type": "function"
    },
    {
      "inputs": [
        {
          "internalType": "uint256",
          "name": "_amount",
          "type": "uint256"
        }
      ],
      "name": "getSecurityDepositByCollateral",
      "outputs": [
        {
          "internalType": "uint256",
          "name": "",
          "type": "uint256"
        }
      ],
      "stateMutability": "view",
      "type": "function"
    },
    {
      "inputs": [
        {
          "internalType": "uint256",
          "name": "_index",
          "type": "uint256"
        }
      ],
      "name": "getStakerRewards",
      "outputs": [
        {
          "internalType": "uint256",
          "name": "",
          "type": "uint256"
        }
      ],
      "stateMutability": "view",
      "type": "function"
    },
    {
      "inputs": [],
      "name": "minimumStakeAmount",
      "outputs": [
        {
          "internalType": "uint256",
          "name": "",
          "type": "uint256"
        }
      ],
      "stateMutability": "view",
      "type": "function"
    },
    {
      "inputs": [],
      "name": "requiredCollateral",
      "outputs": [
        {
          "internalType": "uint256",
          "name": "",
          "type": "uint256"
        }
      ],
      "stateMutability": "view",
      "type": "function"
    },
    {
      "inputs": [
        {
          "internalType": "uint256",
          "name": "_amount",
          "type": "uint256"
        }
      ],
      "name": "stake",
      "outputs": [],
      "stateMutability": "nonpayable",
      "type": "function"
    },
    {
      "inputs": [],
      "name": "stakePeriod",
      "outputs": [
        {
          "internalType": "uint256",
          "name": "",
          "type": "uint256"
        }
      ],
      "stateMutability": "view",
      "type": "function"
    },
    {
      "inputs": [],
      "name": "stakerShare",
      "outputs": [
        {
          "internalType": "uint256",
          "name": "",
          "type": "uint256"
        }
      ],
      "stateMutability": "view",
      "type": "function"
    },
    {
      "inputs": [],
      "name": "token",
      "outputs": [
        {
          "internalType": "contract IERC20",
          "name": "",
          "type": "address"
        }
      ],
      "stateMutability": "view",
      "type": "function"
    },
    {
      "inputs": [],
      "name": "totalCollateral",
      "outputs": [
        {
          "internalType": "uint256",
          "name": "",
          "type": "uint256"
        }
      ],
      "stateMutability": "view",
      "type": "function"
    },
    {
      "inputs": [],
      "name": "totalSecurityDeposite",
      "outputs": [
        {
          "internalType": "uint256",
          "name": "",
          "type": "uint256"
        }
      ],
      "stateMutability": "view",
      "type": "function"
    },
    {
      "inputs": [
        {
          "internalType": "uint256",
          "name": "_index",
          "type": "uint256"
        }
      ],
      "name": "unstake",
      "outputs": [],
      "stateMutability": "nonpayable",
      "type": "function"
    },
    {
      "inputs": [
        {
          "internalType": "address",
          "name": "",
          "type": "address"
        },
        {
          "internalType": "uint256",
          "name": "",
          "type": "uint256"
        }
      ],
      "name": "userStakes",
      "outputs": [
        {
          "internalType": "uint256",
          "name": "",
          "type": "uint256"
        }
      ],
      "stateMutability": "view",
      "type": "function"
    },
    {
      "inputs": [
        {
          "internalType": "uint256",
          "name": "_amount",
          "type": "uint256"
        }
      ],
      "name": "withdraw",
      "outputs": [],
      "stateMutability": "nonpayable",
      "type": "function"
    }
  ],
  "bytecode": "0x6101203461014f57601f61121738819003918201601f19168301916001600160401b0383118484101761015457808492604094855283398101031261014f5780516001600160a01b0391828216820361014f576020015191821680920361014f5760805262ed4e0060a052603c60c0526710a741a46278000060e0526101009068056bc75e2d63100000825260018060a01b03193381600554161760055560065416176006556040516110ac918261016b833960805182818161012801528181610291015281816103ed015281816108cc015281816109ab01528181610a4a0152610b66015260a0518281816102360152818161044f0152818161079101528181610fa80152611026015260c0518281816106de015281816107380152610b2e015260e0518281816107b20152818161081b01528181610fc901526110470152518181816103ad01526106a30152f35b600080fd5b634e487b7160e01b600052604160045260246000fdfe6040608081526004908136101561001557600080fd5b600091823560e01c9081630962ef7914610aa357816327f34ca414610a015781632e17de781461092f5781632e1a7d4d1461087657816338af3eed1461083e5781633bcfc4b8146108035781634ac8eb5f146107e65781634d3e8536146107645781634e63ddf4146107015781635af72079146106c65781636b036f451461068b578163a694fc3a1461038d578163aaf5eb681461036a578163b2a94e8a14610343578163b53105a314610324578163b5d5b5fa146102cc578163b6b55f2514610259578163c1699a991461021e578163cc4ba707146101a157508063e1f4690114610183578063f851a4401461015b5763fc0c546a1461011557600080fd5b34610157578160031936011261015757517f00000000000000000000000000000000000000000000000000000000000000006001600160a01b03168152602090f35b5080fd5b503461015757816003193601126101575760055490516001600160a01b039091168152602090f35b50346101575781600319360112610157576020906001549051908152f35b9050823461021b57602036600319011261021b5781359060035482101561021b575060c0926101d160ff92610c17565b5060018060a01b03815416936001820154926002830154916003840154930154938151968752602087015285015260608401528181161515608084015260081c16151560a0820152f35b80fd5b505034610157578160031936011261015757602090517f00000000000000000000000000000000000000000000000000000000000000008152f35b839034610157576020366003190112610157576102bd6102c6913561028960018060a01b03600554163314610c52565b6102b58130337f0000000000000000000000000000000000000000000000000000000000000000610ccb565b600154610ca8565b80600155610f84565b60025580f35b82843461021b578160031936011261021b5782356001600160a01b03811693908490036101575760243593825260205281812090815484101561021b575060209261031691610be9565b91905490519160031b1c8152f35b5050346101575781600319360112610157576020906002549051908152f35b82843461021b57602036600319011261021b575061036360209235610f84565b9051908152f35b50503461015757816003193601126101575760209051670de0b6b3a76400008152f35b8383346101575760209081600319360112610687578335918215610645577f000000000000000000000000000000000000000000000000000000000000000083106105ea576103dd838554610ca8565b600254106105b2576104118330337f0000000000000000000000000000000000000000000000000000000000000000610ccb565b61041c838554610ca8565b8455815160c0810181811067ffffffffffffffff82111761059f57835233815281810193845282810142815260608201917f00000000000000000000000000000000000000000000000000000000000000008352608081019287845260a08201928884526003549768010000000000000000988981101561058c578060016104a79201600355610c17565b94909461057a57918b97969594929188949260018060a01b039051166bffffffffffffffffffffffff60a01b85541617845551600184015551600283015551600382015501915115159060ff61ff0084549251151560081b1692169061ffff19161717905533855252822090600354906000199283830192831161056757805491821015610554579061053f91600182018155610be9565b909283549160031b92831b921b191617905580f35b634e487b7160e01b855260418652602485fd5b634e487b7160e01b855260118652602485fd5b634e487b7160e01b8b528a8c5260248bfd5b634e487b7160e01b8b5260418c5260248bfd5b634e487b7160e01b865260418752602486fd5b8490606492519162461bcd60e51b835282015260136024820152724e6f20656e6f75676820616c6c6f77616e636560681b6044820152fd5b8490608492519162461bcd60e51b8352820152603060248201527f416d6f756e74206d7573742062652067726561746572207468616e206d696e6960448201526f1b5d5b481cdd185ad948185b5bdd5b9d60821b6064820152fd5b8490606492519162461bcd60e51b8352820152601d60248201527f416d6f756e74206d7573742062652067726561746572207468616e20300000006044820152fd5b8280fd5b505034610157578160031936011261015757602090517f00000000000000000000000000000000000000000000000000000000000000008152f35b505034610157578160031936011261015757602090517f00000000000000000000000000000000000000000000000000000000000000008152f35b82843461021b57602036600319011261021b5750610363610731600161072960209535610c17565b50015461100f565b606461075d7f000000000000000000000000000000000000000000000000000000000000000083610f71565b0490610e92565b82843461021b57602036600319011261021b5750670de0b6b3a76400006107de6020936301e133806107d67f00000000000000000000000000000000000000000000000000000000000000007f0000000000000000000000000000000000000000000000000000000000000000610f71565b049035610f71565b049051908152f35b505034610157578160031936011261015757602091549051908152f35b505034610157578160031936011261015757602090517f00000000000000000000000000000000000000000000000000000000000000008152f35b50503461015757816003193601126101575760609060018060a01b036006541690600754906008549181519384526020840152820152f35b905034610687576020366003190112610687578035916108a160018060a01b03600554163314610c52565b826108b86108b3600254875490610e92565b61100f565b106108f857836102c66102bd856108f081337f0000000000000000000000000000000000000000000000000000000000000000610e9f565b600154610e92565b906020606492519162461bcd60e51b835282015260116024820152704e6f20656e6f7567682062616c616e636560781b6044820152fd5b9050346106875760203660031901126106875761094c8135610c17565b5080549092906001600160a01b031633036109d257508160019161098761097f60026109cf960154600385015490610ca8565b421015610eef565b8101610100815461099e60ff8260081c1615610f33565b61ff0019161790550154337f0000000000000000000000000000000000000000000000000000000000000000610e9f565b80f35b906020606492519162461bcd60e51b835282015260096024820152682737ba1037bbb732b960b91b6044820152fd5b919050346106875782600319360112610687576006546001600160a01b03163303610a6e57826109cf600754610a44610a3d6008548093610e92565b8092610ca8565b600855337f0000000000000000000000000000000000000000000000000000000000000000610e9f565b906020606492519162461bcd60e51b8352820152600f60248201526e4e6f742042656e656669636961727960881b6044820152fd5b90503461068757602036600319011261068757610ac08135610c17565b5080546001600160a01b039081169391929190338514908115610bdb575b5015610b985750610b9292610b6383610b8a93610b0961097f60026001980154600385015490610ca8565b8101610b2686825493610b1f60ff861615610f33565b015461100f565b906064610b537f000000000000000000000000000000000000000000000000000000000000000084610f71565b0496879360ff1916179055610e92565b907f0000000000000000000000000000000000000000000000000000000000000000610e9f565b600754610ca8565b60075580f35b906020606492519162461bcd60e51b8352820152601860248201527f4e6f74206f776e6572206f722042656e656669636961727900000000000000006044820152fd5b905060065416841438610ade565b8054821015610c015760005260206000200190600090565b634e487b7160e01b600052603260045260246000fd5b600354811015610c01576005906003600052027fc2575a0e9e593c00f959f8c92f12db2869c3395a3b0502d05e2516446f71f85b0190600090565b15610c5957565b60405162461bcd60e51b815260206004820152602160248201527f4f6e6c792061646d696e2063616e2063616c6c20746869732066756e6374696f6044820152603760f91b6064820152608490fd5b91908201809211610cb557565b634e487b7160e01b600052601160045260246000fd5b6040516323b872dd60e01b60208201526001600160a01b03928316602482015292909116604483015260648083019390935291815260a081019181831067ffffffffffffffff841117610d2657610d2492604052610d3c565b565b634e487b7160e01b600052604160045260246000fd5b60018060a01b031690600080826020829451910182865af13d15610e235767ffffffffffffffff903d828111610e0f5760405192601f8201601f19908116603f0116840190811184821017610dfb576040528252610da391903d84602084013e5b84610e2f565b908151918215159283610dd3575b505050610dbb5750565b60249060405190635274afe760e01b82526004820152fd5b81929350906020918101031261015757602001519081159182150361021b5750388080610db1565b634e487b7160e01b85526041600452602485fd5b634e487b7160e01b84526041600452602484fd5b610da390606090610d9d565b90610e565750805115610e4457805190602001fd5b604051630a12f52160e11b8152600490fd5b81511580610e89575b610e67575090565b604051639996b31560e01b81526001600160a01b039091166004820152602490fd5b50803b15610e5f565b91908203918211610cb557565b60405163a9059cbb60e01b60208201526001600160a01b039092166024830152604480830193909352918152608081019167ffffffffffffffff831182841017610d2657610d2492604052610d3c565b15610ef657565b60405162461bcd60e51b8152602060048201526015602482015274131bd8dac81c195c9a5bd9081b9bdd08195b991959605a1b6044820152606490fd5b15610f3a57565b60405162461bcd60e51b815260206004820152600f60248201526e105b1c9958591e4818db185a5b5959608a1b6044820152606490fd5b81810292918115918404141715610cb557565b670de0b6b3a764000090818102918183041490151715610cb5576301e13380610fed7f00000000000000000000000000000000000000000000000000000000000000007f0000000000000000000000000000000000000000000000000000000000000000610f71565b04908115610ff9570490565b634e487b7160e01b600052601260045260246000fd5b611072670de0b6b3a7640000916301e1338061106b7f00000000000000000000000000000000000000000000000000000000000000007f0000000000000000000000000000000000000000000000000000000000000000610f71565b0490610f71565b049056fea2646970667358221220d63637109c662ca7dddab674f917bda41303ef3739357d90663742d88292d38264736f6c63430008140033",
  "linkReferences": {},
  "deployedLinkReferences": {}
}